:020000040800F2
:10000000000D0020BD0100081102000813020008C5
:10001000170200081B0200081F0200080000000071
:1000200000000000000000000000000023020008A3
:10003000250200080000000027020008290200082D
:10004000D7010008D7010008D7010008D701000830
:10005000D7010008D7010008D7010008D701000820
:10006000D7010008D7010008D7010008D701000810
:10007000D7010008D7010008D7010008D701000800
:10008000D7010008D7010008D701000800000000D0
:10009000000000000000000000000000D701000880
:1000A000D70100082B020008D7010008D70100087B
:1000B000D7010008D7010008D7010008D7010008C0
:1000C000D7010008D7010008D7010008D7010008B0
:1000D000D7010008D7010008D7010008D7010008A0
:1000E000D7010008D7010008D70100080000000070
:1000F0000000000000000000000000000000000000
:1001000000000000000000000000000000000000EF
:100110000000000000000000D7010008D70100081F
:1001200000F002F800F03AF80AA090E8000C8244CF
:100130008344AAF10107DA4501D100F02FF8AFF2AC
:10014000090EBAE80F0013F0010F18BFFB1A43F0B5
:100150000103184794190000B4190000103A24BF95
:1001600078C878C1FAD8520724BF30C830C144BF1C
:1001700004680C607047000000230024002500265E
:10018000103A28BF78C1FBD8520728BF30C148BFFA
:100190000B6070471FB51FBD10B510BD01F06CFCA2
:1001A0001146FFF7F7FF00F029F801F08AFC03B4CD
:1001B000FFF7F2FF03BC01F08FFC00000948804705
:1001C00009480047FEE7FEE7FEE7FEE7FEE7FEE739
:1001D000FEE7FEE7FEE7FEE704480549054A064B51
:1001E00070470000470500082101000800010020B9
:1001F000000D0020000900200009002000F05CF83C
:1002000000F06CF800F0A0F800F016F900BFFEE76F
:10021000704700BFFEE700BFFEE700BFFEE700BF7C
:10022000FEE7704770477047704710B501211D48C1
:1002300001F00BFCA8B301211A4801F017FC1A4881
:1002400000783A2818D1002017490870174800781C
:1002500050B94FF48061164800F0FBFA134800785B
:10026000401C1249087007E04FF48061104800F00C
:10027000F2FA00200D4908700E480B49097830F851
:1002800011000849343108800A480749097830F8D4
:10029000110004493831088003480078401C0249A5
:1002A000087010BD002C0140750000207400002073
:1002B000000C01400000002010B50121042000F0D6
:1002C000E4FC0121082000F0E0FC0121084600F0D8
:1002D000DCFC0121C80200F0D8FC10BD08B51820D4
:1002E0008DF8030003208DF802004FF48070ADF804
:1002F000000069465F4800F0FFF94FF40050ADF888
:10030000000069465C4800F0F7F94FF40070ADF862
:1003100000006946574800F0EFF94FF48040ADF80F
:1003200000006946544800F0E7F910208DF80300FA
:1003300003208DF802004FF48060ADF8000069469C
:100340004D4800F0D9F908BD01204C490880FF2034
:10035000091D088049482838008840F06000474956
:100360002839088045481C38008840F0010043497E
:100370001C39088041481038008820F003003F49AC
:10038000103908800846008820F44070088008462C
:10039000008840F0080008800846008840F40060AB
:1003A00008800846008840F0600008800846008801
:1003B00020F01000088031480838008840F005001F
:1003C0002E49083908800846008820F00A00088075
:1003D0002A481038008840F4E04028491039088045
:1003E00026480838008840F0500024490839088021
:1003F0000846008820F0A0000880214800881F4996
:100400000C3108801E480088091D08801B481C30DC
:10041000008840F0180019491C31088008460088FF
:1004200040F40040088015482838008840F001005A
:10043000124928390880704710B51920002100287A
:1004400007DA0A07140E0F4A00F00F031B1FD454DB
:1004500003E00A07130E0C4A135400BF19200121B0
:1004600081404209920002F1E022C2F8001100BF6F
:1004700010BD000000080140000C0140282C014084
:100480000000002018ED00E000E400E00CB50020C2
:10049000019000906148006840F480305F49086036
:1004A00000BF5E48006800F4003000900198401CD6
:1004B0000190009818B90198B0F5A06FF1D1574894
:1004C000006800F4003010B10120009001E000202D
:1004D00000900098012831D1504840684F49486049
:1004E00008464068486008464068486008464068DA
:1004F00020F47C1048600846406840F4981048603A
:100500000846006840F08070086000BF43480068FB
:1005100000F000700028F9D04048406820F0030047
:100520003E4948600846406840F00200486000BF0D
:100530003A48406800F00C000828F9D10CBD10B50D
:10054000FFF7A4FF10BD10B53448006840F001006B
:100550003249086008464068314908402F494860E0
:10056000084600682F4908402C4908600846006882
:1005700020F4802008600846406820F4FE004860AF
:100580004FF41F0088600020C862FFF7D8FF10BD3D
:1005900030B50021002000220023204C646804F0C4
:1005A0000C0121B1042906D0082925D107E01E4CF1
:1005B0001E4D2C6024E01C4C1C4D2C6020E0174C80
:1005C000646804F47010154C646804F480320224EA
:1005D00004EB904022B9164C4443144D2C600AE0C1
:1005E0000E4CE46A04F00F04631C0F4CB4FBF3F4EC
:1005F00044430E4D2C6003E00B4C0C4D2C6000BFAF
:1006000000BF064C6468C4F303140A4D295D074C0F
:100610002468CC40054D2C6030BD00000010024025
:100620000000FFF8FFFFF6FE00127A0078000020BD
:1006300000093D007C00002010B50446CC488442EF
:1006400008D10121042000F03AFB0021042000F031
:1006500036FB46E0C748844208D10121082000F05B
:100660002EFB0021082000F02AFB3AE0C248844219
:1006700008D10121102000F022FB0021102000F001
:100680001EFB2EE0BD48844208D10121202000F04D
:1006900016FB0021202000F012FB22E0B848844223
:1006A00008D10121402000F00AFB0021402000F089
:1006B00006FB16E0B348844208D10121802000F0F7
:1006C000FEFA0021802000F0FAFA0AE0AE488442E7
:1006D00007D10121801500F0F2FA0021A01500F0E9
:1006E000EEFA10BD10B50121084600F0E8FA00212D
:1006F000012000F0E4FA10BD2DE9F041024600258A
:100700000026002000230024002791F803C00CF0ED
:100710000F0591F803C00CF0100CBCF1000F03D0D2
:1007200091F802C04CEA050591F800C0BCF1000F39
:1007300031D0146800202BE04FF0010C0CFA00F3CC
:10074000B1F800C00CEA03069E4220D183004FF0AE
:100750000F0C0CFA03F7BC4305FA03FC4CEA040443
:1007600091F803C0BCF1280F06D14FF0010C0CFA30
:1007700000FCC2F814C00AE091F803C0BCF1480FB5
:1007800005D14FF0010C0CFA00FCC2F810C0401C5F
:100790000828D1D31460B1F800C0BCF1FF0F34DDDC
:1007A000546800202EE000F1080C4FF0010808FA10
:1007B0000CF3B1F800C00CEA03069E4221D183007D
:1007C0004FF00F0C0CFA03F7BC4305FA03FC4CEA9C
:1007D000040491F803C0BCF1280F05D100F1080C06
:1007E00008FA0CF8C2F8148091F803C0BCF1480F65
:1007F00007D100F1080C4FF0010808FA0CF8C2F814
:100800001080401C0828CED35460BDE8F0814FF61C
:10081000FF710180022181700421C170704702467E
:10082000002093680B400BB1012000E000207047CE
:100830000146886880B2704702460020D3680B40AA
:100840000BB1012000E0002070470146C86880B26B
:10085000704701617047416170470AB1016100E072
:1008600041617047C16070474FF480320A43826132
:100870008161826182698269704702460020434B30
:1008800018684FF68073184040EA021008433F4B47
:10089000186070473E49C8617047F0B50A460023AA
:1008A00000240021002500F00046B6F1004F02D1DF
:1008B000364EF16901E0354E7168C0F3034583B2ED
:1008C00000F44016B6F5401F08D121F070612F4E9C
:1008D000766826F070662D4F7E6012E000F4801678
:1008E000B6F5801F06D1032606FA05F4A14341F0B0
:1008F000706106E0460D360103FA06F6B14341F099
:10090000706122B1460D360103FA06F6314300F05C
:100910000046B6F1004F02D11C4EF16101E01B4EC2
:100920007160F0BD30B500228B071C0F0F2303FA56
:1009300004F2164B08338C1053F824309343134CB5
:1009400008348D1044F8253023468C1053F8243099
:100950008C07240F00FA04F423430C4C08348D1048
:1009600044F8253030BD0A49DC310860704700008A
:1009700000080140000C014000100140001401403B
:1009800000180140001C014000200140000001400F
:1009900000002042E648006840F00100E449086099
:1009A00008464068E3490840E14948600846006855
:1009B000E1490840DE4908600846006820F48020CC
:1009C00008600846406820F4FE0048604FF41F00AD
:1009D00088600020C8627047D549096821F48031D9
:1009E000D34A11601146096821F480211160B0F5E5
:1009F000803F03D0B0F5802F0ED106E0CC490968C6
:100A000041F48031CA4A116007E0C949096841F4DC
:100A1000A021C74A116000E000BF00BF704710B5B9
:100A200001460022002300204A11012A02D1C04CB5
:100A3000236806E0022A02D1BD4C236A01E0BC4CC7
:100A4000636A01F01F02012494401C400CB1012094
:100A500000E0002010BD38B50020009000240025E3
:100A600000BF3120FFF7DBFF05460098401C0090D7
:100A70000098B0F5A06F01D0002DF2D03120FFF723
:100A8000CEFF08B1012400E00024204638BD014615
:100A90000020A74A106820F0F80040EAC10010606A
:100AA0007047A6490860704702460020A04B58686E
:100AB00020F4741042EA010318439D4B58607047BC
:100AC0009E490866704702460020994BD86A9C4BA5
:100AD000184042EA01031843954BD862704701461B
:100AE0000020934A506820F003000843506070478C
:100AF0008F48406800F00C007047014600208C4A87
:100B0000506820F0F0000843506070470146002014
:100B1000874A506820F4E0600843506070470146FF
:100B20000020834A506820F4605040EAC1005060C1
:100B3000704729B17E4A527A02437D4B5A7204E0D3
:100B40007B4A527A82437A4B5A7270477B49D8313A
:100B50000860704701460020754A506820F4404004
:100B60000843506070470021714A20321170704A6A
:100B700082F82010012802D004280AD104E00121C3
:100B80006B4A2032117005E00521694A203211704C
:100B900000E000BF00BF70476A49086070476449C1
:100BA000096A0143624A1162704766494439086024
:100BB000704770B5002100230024002200255C4E00
:100BC000766806F00C0121B1042905D0082921D14D
:100BD00005E05D4E066020E05B4E06601DE0544E71
:100BE000766806F47013524E766806F48034022656
:100BF00006EB93431CB9554E5E43066009E04C4E2C
:100C0000F66A06F00F06751C4F4EB6FBF5F65E430E
:100C1000066002E04C4E066000BF00BF444E76689E
:100C200006F0F00109094A4E725C0668D64046603B
:100C30003F4E766806F4E061090A454E725C4668EC
:100C4000D64086603A4E766806F46051C90A404E36
:100C5000725C4668D640C660354E766806F4404100
:100C6000890B3C4E725CC668B6FBF2F6066170BD3D
:100C700029B12F4A526902432D4B5A6104E02C4A94
:100C8000526982432A4B5A61704729B1284A9269B6
:100C90000243274B9A6104E0254A92698243244B20
:100CA0009A61704729B1224AD2690243204BDA6126
:100CB00004E01F4AD26982431D4BDA61704729B1B3
:100CC0001B4AD26802431A4BDA6004E0184AD26821
:100CD0008243174BDA60704729B1154A1269024303
:100CE000134B1A6104E0124A12698243104B1A61D5
:100CF000704714494039086070471049C86470470C
:100D00000B49C87170470A48406A40F08070084932
:100D10004862704701460020054A92680A400AB1BD
:100D2000012000E0002070470149887270470000F0
:100D3000001002400000FFF8FFFFF6FE00004242F4
:100D4000F0FFFEFF8004424200127A0000093D00DD
:100D50008C0000209C00002010B50446FE48844210
:100D600008D10121C014FFF7AAFF0021E014FFF70A
:100D7000A6FFC4E0B4F1804F08D101210846FFF777
:100D8000ABFF00210120FFF7A7FFB8E0F348844242
:100D900008D101210220FFF79FFF00210220FFF769
:100DA0009BFFACE0EE48844208D101210420FFF70C
:100DB00093FF00210420FFF78FFFA0E0E948844261
:100DC00008D101210820FFF787FF00210820FFF745
:100DD00083FF94E0E448844208D101211020FFF70A
:100DE0007BFF00211020FFF777FF88E0DF48844277
:100DF00008D101212020FFF76FFF00212020FFF7FD
:100E00006BFF7CE0DA48844208D101214014FFF7EF
:100E100056FF00216014FFF752FF70E0D54884426E
:100E200009D10121C804FFF74AFF00214FF4002037
:100E3000FFF745FF63E0D048844209D1012108054E
:100E4000FFF73DFF00214FF48010FFF738FF56E019
:100E5000CA48844209D101214805FFF730FF00212B
:100E60004FF40010FFF72BFF49E0C548844208D13A
:100E700001214020FFF730FF00214020FFF72CFF29
:100E80003DE0C048844208D101218020FFF724FFC3
:100E900000218020FFF720FF31E0BB48844208D1C9
:100EA00001218015FFF718FF0021A015FFF714FF9F
:100EB00025E0B648844209D101210804FFF7FFFE6E
:100EC00000214FF48030FFF7FAFE18E0B04884426A
:100ED00009D101214804FFF7F2FE00214FF4003050
:100EE000FFF7EDFE0BE0AB48844208D101218804F6
:100EF000FFF7E5FE00214FF48020FFF7E0FE10BD74
:100F000000220288944B98420ED0994B98420BD005
:100F1000B0F1804F08D0914B984205D0904B984249
:100F200002D0904B984204D14FF68F731A404B88F1
:100F30001A438D4B984207D08C4B984204D04FF601
:100F4000FF431A40CB881A4302808B8883850B8825
:100F50000385814B98420BD0854B984208D08B4B30
:100F6000984205D08A4B984202D08A4B984201D1D0
:100F70000B7A038601238382704770B50024002218
:100F80000023058C4FF6FE7635400584028C83885D
:100F9000048B4FF68F752C40B51E2C400D882C43CA
:100FA000751E2A400D892A434D882A436A4DA8425E
:100FB0000BD06F4DA84208D0744DA84205D0744D97
:100FC000A84202D0734DA84213D14FF6F7752A40BC
:100FD0004D892A434FF6FB752A408D882A434FF6E8
:100FE000FF652B404FF6FF552B408D892B43CD8954
:100FF0002B4383800483CD888586028470BD70B5C1
:10100000002400220023058C4FF6EF76354005843E
:10101000028C8388048B48F6FF752C404FF6FF4501
:101020002C400D884FF6FF7606EA05252C434FF637
:10103000DF752A400D8906EA05152A434D8806EA20
:1010400005152A43444DA84202D0494DA8421DD15E
:101050004FF67F752A404D894FF6FF7606EA051553
:101060002A434FF6BF752A408D8806EA05152A43A4
:101070004FF6FF352B404FF2FF752B408D8906EA66
:1010800085052B43CD8906EA85052B4383800483A0
:10109000CD880587028470BD70B50024002200232E
:1010A000058C4FF6FF6635400584028C8388848B5F
:1010B0004FF68F752C404FF6FC752C400D882C4355
:1010C0004FF6FF552A400D894FF6FF7606EA0525B3
:1010D0002A434D8806EA05252A431F4DA84202D01F
:1010E000234DA8421DD14FF2FF752A404D894FF67E
:1010F000FF7606EA05252A434FF6FF352A408D88FC
:1011000006EA05252A434EF6FF752B404DF6FF757E
:101110002B408D8906EA05152B43CD8906EA051576
:101120002B4383808483CD888587028470BD70B50E
:10113000002200230024058C4EF6FF7635400584FE
:10114000038C8488828B48F6FF752A404FF6FF4552
:101150002A400D8820E00000002C014000040040DF
:1011600000080040000C0040001000400014004047
:1011700000340140004C0140005001400054014047
:1011800000180040001C00400020004000400140CA
:1011900000440140004801404FF6FF7606EA05256D
:1011A0002A434DF6FF752B400D8906EA05352B4382
:1011B0004D8806EA05352B43FB4DA84202D0FB4D76
:1011C000A84208D14BF6FF752C408D894FF6FF766B
:1011D00006EA85152C4384808283CD88A0F8405090
:1011E000038470BD828B4FF2FF331A408283828B5F
:1011F0004FF6FF7303EA01231A4382837047F0B569
:101200000C461546002100220026078C4EF6FF7C76
:1012100007EA0C070784818B028C4FF6FF7707EAF9
:10122000043640F6FF4739404FF6FF7707EA0527B7
:1012300039434FF6FF7707EA033739434DF6FF7717
:101240003A4046F480573A4381830284F0BD828B52
:101250004FF6F3731A408283828B0A43828370476E
:10126000F0B50C461546002100220026078C4FF6EB
:10127000FF6C07EA0C070784818B028C4FF6FF771F
:1012800007EA04264FF60C7739404FF6FF7707EA56
:1012900003172F4339434FF6FF573A4046F4807700
:1012A0003A4381830284F0BD028B4FF2FF331A4030
:1012B0000283028B4FF6FF7303EA01231A43028372
:1012C0007047F0B50C461546002100220026078C19
:1012D0004FF6EF7C07EA0C070784018B028C4FF670
:1012E000FF7707EA041640F6FF4739404FF6FF77CD
:1012F00007EA033739434FF6FF7707EA05273943F3
:101300004FF6DF773A4046F010073A4301830284F4
:10131000F0BD028B4FF6F3731A400283028B0A432F
:1013200002837047F0B50C46154600210022068C5A
:101330004FF6FE773E400684018B028C4FF60C760A
:1013400031407E1C06EA03162E4331437E1E324096
:1013500044F00106324301830284F0BD70B50546B6
:101360000C46208850B92389A28861882846FFF757
:10137000D9FFE1882846FFF7CCFF25E02088042824
:101380000AD12389A28861882846FFF79AFFE1885D
:101390002846FFF789FF17E0208808280AD123890B
:1013A000A28861882846FFF75BFFE1882846FFF79F
:1013B0004EFF09E02389A28861882846FFF71FFFB6
:1013C000E1882846FFF70EFF70BD2DE9F041054684
:1013D0000C4600260127608808B9022600E0002696
:1013E000A088012801D1022700E001272088A0B9A8
:1013F0002389A28861882846FFF794FFE188284660
:10140000FFF787FF23893A4631462846FFF759FF01
:10141000E1882846FFF748FF13E02389A288618806
:101420002846FFF74EFFE1882846FFF73DFF238956
:101430003A4631462846FFF775FFE1882846FFF710
:1014400068FFBDE8F0810A884B881A438B881A43ED
:10145000CB881A430B891A434B891A438B891A4349
:10146000A0F8442070474FF6FF7181800021018071
:10147000C1804180017270470021018041808180DC
:10148000C180018141818181C1817047002101803A
:101490004180012181800021C180018170470021AC
:1014A000018041808180C1800181418181817047BB
:1014B00021B1028842F00102028004E002884FF666
:1014C000FE731A400280704731B1B0F8442042F4F4
:1014D0000042A0F8442005E0B0F84420C2F30E0218
:1014E000A0F8442070471AB183890B43838102E03E
:1014F00083898B43838170478182704741EA02036D
:10150000A0F8483070471AB183890B43838102E009
:1015100083898B438381704701894FF6F8721140AC
:10152000018170470A46002101894FF68F731940E7
:1015300011430181704730B504460D4629462046C7
:10154000FFF7F0FF208940F00700208130BD2DE932
:10155000F04104460D4616461F46602D06D13B4617
:10156000012231462046FFF7ACFE05E03B46012252
:1015700031462046FFF7D6FE29462046FFF7D2FF28
:10158000208940F007002081BDE8F08130B50C468D
:1015900000210189C9B24FF6FF7505EA03251543FD
:1015A00025432943018130BD002C01400034014016
:1015B0002DE9F04105460E4617469846002443465D
:1015C0003A4631462846FFF7E1FF2C894FF6F8707E
:1015D000044044F007044FF68F70044044F0700458
:1015E0002C81BDE8F081F0B504460D4616461F4635
:1015F0003B46324629462046FFF7C8FF208940F483
:1016000080402081F0BD0185828270470A4600211A
:1016100001884FF68F731940114301807047F0B570
:101620000C4615461E460021002200230189028B2C
:10163000038C4FF6F877394021434FF6FC473A4088
:1016400040F201173A434FF6DD773B404FF6FF7704
:1016500007EA06172F433B43018102830384F0BD51
:101660000A460021018B4FF68F7319401143018305
:1016700070470A460021018B48F6FF7319404FF668
:10168000FF7303EA02231943018370470A460021CE
:10169000818B4FF68F7319401143818370470A463F
:1016A0000021818B48F6FF7319404FF6FF7303EA60
:1016B000022319438183704721B1028842F08002DE
:1016C000028004E002884FF67F731A400280704760
:1016D00021B1828842F00402828004E082884FF6C1
:1016E000FB731A408280704721B1828842F0080261
:1016F000828004E082884FF6F7731A408280704738
:1017000021B1828842F00102828004E082884FF693
:10171000FE731A40828070470A460021018B4FF603
:10172000F77319401143018370470A460021018B6A
:101730004FF2FF7319404FF6FF7303EA0223194378
:10174000018370470A460021818B4FF6F7731940D9
:101750001143818370470A460021818B4FF2FF734A
:1017600019404FF6FF7303EA022319438183704740
:101770000A460021018B4FF6FB7319401143018388
:1017800070470A460021018B4FF6FF3319404FF690
:10179000FF7303EA02231943018370470A460021BD
:1017A000818B4FF6FB7319401143818370470A46C2
:1017B0000021818B4FF6FF3319404FF6FF7303EA88
:1017C00002231943818370470A460021018B4FF69B
:1017D0007F7319401143018370470A460021018B32
:1017E000C1F30E014FF6FF7303EA0223194301838D
:1017F00070470A460021818B4FF67F7319401143D1
:10180000818370470A460021818BC1F30E014FF698
:10181000FF7303EA02231943818370470A460021BC
:10182000018C4FF6FD7319401143018470470A463D
:101830000021018C4FF6F773194011430184704762
:101840000A460021018C4FF6DF7319404FF6FF73F3
:1018500003EA02131943018470470A460021018CF0
:101860004FF67F7319404FF6FF7303EA02131943D3
:10187000018470470A460021018C4FF6FF5319403E
:101880004FF6FF7303EA02231943018470470A46A7
:101890000021018C4FF2FF7319404FF6FF7303EAEA
:1018A00002231943018470470A460021018C4DF63A
:1018B000FF7319404FF6FF7303EA023319430184A3
:1018C000704730B5002301248C40A3B2048C9C43A4
:1018D0000484048C02FA01F5ADB22C43048430BDBB
:1018E00030B5002304248C40A3B2048C9C430484B0
:1018F000048C02FA01F5ADB22C43048430BD70B5FE
:101900000346002000241846183001258D40ACB253
:101910001D8CA5431D8409B1082909D100EB610084
:10192000056825F0700505600568154305600EE043
:101930000D1FC5F34E052844056825F4E0450560F4
:1019400005684FF6FF7606EA02263543056070BD4E
:1019500021B1028842F00202028004E002884FF6C0
:10196000FD731A400280704721B1028842F00402E0
:10197000028004E002884FF6FB731A400280704731
:1019800021B1828842F08002828004E082884FF692
:101990007F731A408280704702884FF6F7731A40AF
:1019A000028002880A430280704782884FF68F7354
:1019B0001A40828082880A438280704702894FF6EB
:1019C000F8731A40028102890A4302817047028932
:1019D0004FF67F731A40028102890A4302817047E1
:1019E0008184704781857047818670470187704781
:1019F00081877047A0F84010704702884FF6FF4378
:101A00001A40028002880A43028070470146888E8D
:101A100070470146088F70470146888F704701461E
:101A2000B1F8400070470146888C70470146088D28
:101A3000704702460020138A0B400BB1012000E0E2
:101A400000207047CA430282704730B5024600202A
:101A500000230024158A05EA0103958905EA01049B
:101A600013B10CB1012000E0002030BDCA43028256
:101A70007047704770477047754600F029F8AE46CA
:101A800005006946534620F00700854618B020B58A
:101A9000FEF7A2FBBDE820404FF000064FF0000724
:101AA0004FF000084FF0000B21F00701AC46ACE806
:101AB000C009ACE8C009ACE8C009ACE8C0098D4673
:101AC00070470446AFF300802046FEF770FB00002D
:101AD00000487047A000002001491820ABBEFEE777
:101AE0002600020070470000081B000800000020CC
:101AF000A00000005C010008A81B0008A000002056
:101B0000600C0000780100087F008B009800A400A2
:101B1000AF00BA00C400CE00D600DE00E400EA0048
:101B2000FF00FF00FF00FF00FF00FF00EA00E400ED
:101B3000DE00D600CE00C400BA00AF00A4009800BA
:101B40008B007F00730066005A004F0044003A008B
:101B50003000280020001A001400000000000000DF
:101B600000000000000014001A00200028003000CF
:101B70003A0044004F005A00660073000000000065
:101B800000366E01000000000000000001020304A6
:101B90000607080900000000010203040102030413
:081BA00006070809020406080B
:0400000508000121CD
:00000001FF
